:020000040000FA
:1000000000000000000010288B1005108510051658
:100010000000000000000000000000008B172028F6
:10002000831285010730990090308B0083162D30A4
:1000300085002430950000308100831205121F28AE
:1000400083160514851083120B30A1000130A20025
:100050000430A3000F30A4000430A5000B30A6002C
:100060000530A7000730A8000F30A9000D30AA0006
:100070000630AB000130AC000E30AD000930AE00F0
:100080000830AF0083169B011C141A088312B200BB
:100090000A30B3000130B4000830B5000530B600B6
:1000A0000F30B7000130B800B9000E30BA0001308F
:1000B000BB000030BC000D30BD000E30BE000C3067
:1000C000BF00B530D421B1010518B1150230D421DB
:1000D00000000000051831140230D4210000000097
:1000E0000518B1140230D4210000000005183115A4
:1000F000831605108514831200002730D4210000D8
:1001000000000130303E84000008A000A01020183C
:10011000A01420162008850000001030850016303D
:10012000D42100000518DE298518DE29840A0F3045
:100130000405031D84280230D42100000000B220F1
:10014000B220B2203718A828831605108514AC28D1
:100150008316051485100000831237080F39031D1C
:10016000822881284521000000002F08A000013EC0
:10017000A1072208C0002108A207A20AA209230899
:10018000C1000F30A30540080F39A307A30A231AA3
:1001900004294108A4072508C0002408A50726084B
:1001A000C10040080F39083EC000401E2607A600C7
:1001B0004108013EA7072708013EA8072808013E7D
:1001C000A9072908013EAA072A08013EAB072B0808
:1001D000013EAC072C08013EAD072D08013EAE07DD
:1001E0002E08013EAF0720080F390F3EA000000087
:1001F00000000000000000000000000000000000FF
:10020000201E44290000B7284108A3072408C00085
:100210002308A4072508C10040080F39083EC00084
:10022000401E2507A5004108013EA6072608013EFD
:10023000A7072708013EA8072808013EA9072908A3
:10024000013EAA072A08013EAB072B08013EAC0776
:100250002C08013EAD072D08013EAE072E08013ED9
:10026000AF0720080F390F3EA0000000000000007B
:10027000000000000000000000000000000000007E
:10028000201E44290000B72808003F08B000013EA6
:10029000B1073208C0003108B207B20AB209330808
:1002A000C1000F30B30540080F39B307B30A331A42
:1002B00094294108B4073508C0003408B50736084A
:1002C000C10040080F39083EC000401E3607B60086
:1002D0004108013EB7073708013EB8073808013E1C
:1002E000B9073908013EBA073A08013EBB073B0887
:1002F000013EBC073C08013EBD073D08013EBE076C
:100300003E08013EBF0730080F390F3EB000000025
:1003100000000000000000000000000000000000DD
:10032000301E4429000047294108B3073408C000A3
:100330003308B4073508C10040080F39083EC00033
:10034000401E3507B5004108013EB6073608013E9C
:10035000B7073708013EB8073808013EB907390822
:10036000013EBA073A08013EBB073B08013EBC0705
:100370003C08013EBD073D08013EBE073E08013E68
:10038000BF0730080F390F3EB0000000000000002A
:10039000000000000000000000000000000000005D
:1003A000301E442900004729CF00CF0BD529080073
:1003B000CE000301D421CE0BDA29080083160301F5
:1003C0009B001C141A088312CD004D18E92909302E
:1003D000EA29063083169A001C158B138B1BED2916
:1003E00055309D00AA309D009C148B178312030189
:0A03F000D8210512D8210516F729BF
:02400E00D33F9E
:024200000900B3
:00000001FF
